:020000040800F2
:100000004065002079020008810200088302000890
:10001000850200088702000889020008000000002D
:10002000000000000000000000000000C101000806
:100030008D020008000000001502000811420008AF
:10004000930200089302000893020008930200083C
:10005000930200089302000893020008930200082C
:10006000930200089302000893020008930200081C
:10007000930200089302000893020008930200080C
:1000800093020008930200089302000893020008FC
:100090001D0B000893020008930200089302000859
:1000A00093020008930200089302000893020008DC
:1000B00093020008930200089302000893020008CC
:1000C00093020008930200089302000893020008BC
:1000D00093020008A948000893020008D54A0008C6
:1000E000930200089302000893020008930200089C
:1000F000930200089302000893020008930200088C
:10010000930200089302000893020008930200087B
:10011000930200089302000899420008B5420008C3
:10012000930200089302000893020008930200085B
:10013000930200089302000893020008930200084B
:100140006D0C000893020008930200089302000857
:10015000930200089302000893020008930200082B
:10016000930200089302000893020008930200081B
:10017000930200089302000893020008930200080B
:100180009302000893020008930200080947000840
:1001900093020008930200089302000893020008EB
:1001A000000000000000000093020008DFF80CD0FF
:1001B00000F06AFB00480047156700084065002012
:1001C0002A4B19680868B0E8F04F80F30988BFF33C
:1001D0006F8F4FF0000080F311887047000000001F
:1001E00006480068006880F3088862B661B6BFF30D
:1001F0004F8FBFF36F8F00DF00BF00BF08ED00E03F
:10020000DFF80C00016841F470010160704700BF25
:1002100088ED00E0EFF30980BFF36F8F134B1A688E
:100220001EF0100F08BF20ED108A20E9F04F10607B
:1002300008B44FF0500080F31188BFF34F8FBFF325
:100240006F8F07F03FFF4FF0000080F3118808BC6C
:1002500019680868B0E8F04F1EF0100F08BFB0EC46
:10026000108A80F30988BFF36F8F70470402002063
:10027000EFF30580704700000648804706480047B6
:10028000FEE7FEE7FEE7FEE7FEE7FEE7FEE7FEE746
:10029000FEE7FEE731420008AD01000840EA010335
:1002A0009B0703D009E008C9121F08C0042AFAD22C
:1002B00003E011F8013B00F8013B521EF9D27047F0
:1002C000D2B201E000F8012B491EFBD27047002298
:1002D000F6E710B513460A4604461946FFF7F0FF45
:1002E000204610BD2DE9FE4F804681EA0300C00F75
:1002F0000C46009021F0004123F00045B8EB0200CD
:10030000A94105D24046214690461C460B4602466E
:1003100023F00040104347D0270DC7F30A00C3F372
:100320000A510290401A019040286BDAC3F313007F
:1003300040F4801B0098924620B10023D2EB030AC0
:1003400063EB0B0B01985946C0F14002504600F098
:10035000BFF906460D4650465946019A00F0D7F9B6
:1003600010EB08006141002487EA115284EAE77328
:100370001A4340D0009A62B3019A012A4FEA075209
:1003800015DC001B61EB02014FF0004202EA07524C
:10039000CDE90042001C41F5801132462B4600F0A9
:1003A0000EFA03B0BDE8F08F40462146F9E7001B86
:1003B00061EB0201001C41F5801300185B4120181D
:1003C000A2F5001747EB030140EAD570B6196D415D
:1003D00011E06D084FEA360645EAC0754FEA07524C
:1003E000001B61EB0201001C41F5801149084FEA36
:1003F00030000019514132462B4603B0BDE8F04FA2
:1004000000F0CEB90098012240000023D0EB020298
:1004100063EBE073009821464FEAE074B8EB00000C
:1004200061EB0401E9E783F000435BE781F0004101
:1004300058E72DE9FE4F81EA030404F0004421F05F
:10044000004100944FF0000B23F0004350EA0104F8
:100450005ED052EA03045BD0C3F30A54C1F30A55D9
:100460002C44A4F2F3340194A0FB0254C1F3130111
:1004700041F48011C3F3130343F4801301FB0244DE
:1004800000FB034E840A970A44EA815447EA8357E3
:10049000A4FB076802958D0A05FB07854FEA932C9C
:1004A00004FB0C542705029D4FEA065847EA16370D
:1004B000B5EB08056EEB070C870E920E47EA811725
:1004C00042EA8312A7FB0201B6EB0B0164EB0004C6
:1004D0002B0D43EA0C335E1844EB1C50DA465146B0
:1004E000E7FB0201C5F313044FEA0B3343EA14534D
:1004F0004FEA0432019C43EA0603A4F10C0402947F
:10050000009CCDE900B400F05AF903B0BDE8F08FCB
:1005100000200146F9E72DE9F04D81EA030404F0DB
:10052000004B21F0004514464FF0000A23F0004133
:1005300050EA050220D054EA01021DD0C5F30A5743
:100540000246C5F31303C1F31300C1F30A5640F486
:10055000801543F48013A7EB0608101BD64608F25B
:10056000FD3873EB050002D308F1010801E0921891
:100570005B41B8F1000F03DA00200146BDE8F08DC1
:1005800000204FF48011064684460EE0171B73EBE3
:10059000050705D3121B63EB050306434CEA010C68
:1005A00049084FEA300092185B4150EA0107EDD14B
:1005B00052EA030012D082EA040083EA05010843EC
:1005C00005D0101BAB4106D20122002306E0002219
:1005D0004FF0004302E06FF0010253101AEB0600E7
:1005E0004CEB085110EB0A0041EB0B01BDE8F04D5C
:1005F00000F0D6B80EB5C10F80EAE0700844CA0713
:10060000002140F233438DE80E000A460B4600F00D
:10061000D6F803B000BD00F0004230F000400AD030
:10062000C10D01F56071C0F3160042EA0151C20824
:1006300040071143704700200146704730B5041E43
:1006400071F1000404DB4FF00044404264EB01010F
:10065000141E73F1000405DB1C464FF000435242A8
:1006600063EB0403994208BF904230BD01F00043A0
:1006700030B421F0004150EA010206D00A0DA2F583
:100680006072C1F31301002A02DC30BC0020704705
:10069000440F44EAC104C100E01830BC00EBC25072
:1006A00000F047B830B50B46014600202022012457
:1006B00009E021FA02F59D4205D303FA02F5491B30
:1006C00004FA02F52844151EA2F10102F1DC30BD46
:1006D000202A04DB203A00FA02F100207047914002
:1006E000C2F1200320FA03F3194390407047202AF7
:1006F00004DB203A21FA02F00021704721FA02F3CC
:10070000D040C2F120029140084319467047202A88
:1007100006DBCB17203A41FA02F043EAE07306E029
:1007200041FA02F3D040C2F1200291400843194639
:1007300070470029A8BF7047401C490008BF20F03F
:100740000100704710B4B0FA80FC00FA0CF050EAD7
:10075000010404BF10BC704749B1CCF1200421FA58
:1007600004F411FA0CF118BF012121430843A3EB53
:100770000C01CB1D4FEA00614FEA102042BF002060
:1007800010BC704700EBC35010440029A4BF10BC3C
:100790007047401C490008BF20F0010010BC7047A2
:1007A00010B5141E73F1000408DA401C41F1000179
:1007B00092185B411A4301D120F0010010BD2DE9D0
:1007C000F04D92469B4611B1B1FA81F202E0B0FAC7
:1007D00080F220329046FFF77BFF04460F4640EA46
:1007E0000A0041EA0B0153465A46084313D011460A
:1007F00053EA010019D0C8F140025046FFF777FFD5
:1008000005460E46504659464246FFF761FF0843EB
:1008100005D0012004E020463946BDE8F08D0020D7
:10082000054346EAE0762C4337430A986305E40A19
:10083000A0EB08000022FD0A44EA47540A3002D522
:1008400000200146E9E7010510196941DDE9084585
:1008500000196941BDE8F04DA2E770B521F00043F1
:1008600003430CD0C1F30A550024D5EB040564EB17
:100870000403D617AD1AB34102DB0020014670BD58
:10088000201841EB025170BD064C074D06E0E068B0
:1008900040F0010394E8070098471034AC42F6D3C7
:1008A000FFF788FC40940008609400082DE9F04DA3
:1008B00000231A461B1A8A4103DB00200146BDE8CB
:1008C000F08DC1F30A52C1F3130141F480154FF0CA
:1008D000000BD10702D100186D41521E00270446BB
:1008E00040F2FF11384601EB620A3E46804602465E
:1008F00000204FF48011FFF7FAFEC2197141BB18B6
:1009000046EB0100B4EB030C75EB000C04D3E41AC6
:1009100065EB000517460E46241908F101006D41EC
:1009200080463428E3DDF91946EB0600091BA8418F
:1009300003D24FF0FF32134601E0002213461BEBB7
:10094000070046EB0A51BDE8F04DFFF729BF70B52F
:100950008C1810F8015B15F0070301D110F8013B6A
:100960002A1106D110F8012B03E010F8016B01F8F1
:10097000016B5B1EF9D12B0705D40023521E0DD449
:1009800001F8013BFAE710F8013BCB1A921C03E097
:1009900013F8015B01F8015B521EF9D5A142D8D3CF
:1009A000002070BDF8B504460D46164600203346BB
:1009B0002A4621460090024803F06CF8F8BD00007A
:1009C0000064004070B505460C4600260DB1022CAF
:1009D00000D870BDA11E06480288284601F044FFD9
:1009E0000646A01E2E54310A601E295400BFF0E7AF
:1009F000AA01002010B502F0B1FE05F0EBFC02F0F8
:100A000077FF05F021FE00F0C9FF01F0EDFA03F0D9
:100A10002DF801F067FF02F03BF902F0DFFB012245
:100A20005103034801F0E1FD02F0A2FB10BD0000FC
:100A30000018024000B589B00121082002F072FFC1
:100A40000121480602F07EFF00208DF822008DF87B
:100A5000230002208DF821008DF82000079007A9BF
:100A60002C4801F035FD0120079007A9294801F025
:100A70002FFD09220121274801F072FD09220021E2
:100A8000244801F06DFD00208DF8160001208DF83E
:100A900017008DF8180000208DF819008DF81A0045
:100AA0008DF81B008DF812008DF8130002208DF8D0
:100AB000140004208DF815000520ADF8100004A9DD
:100AC000154800F060FA00208DF80A008DF80B0040
:100AD00001208DF80C000020ADF8080001208DF8F1
:100AE0000D000020ADF80000ADF80200ADF80400E4
:100AF000ADF80600684600F029F900220321142011
:100B000002F018FE01220221034800F033FA09B076
:100B100000BD0000000C02400064004000B585B03C
:100B20000221164800F096F928B36A4600211348BE
:100B300000F0B3FA0098A0F2052020B1012808D0F7
:100B4000022812D10BE00DF10B00009902F0BEFC5F
:100B50000CE00DF10B00009902F098FB06E00DF19E
:100B60000B00009902F092FB00E000BF00BF0221E1
:100B7000024800F097F805B000BD00000064004096
:100B800000B589B00121022002F0CCFE01218806C7
:100B900002F0D8FE00208DF822008DF823000220FC
:100BA0008DF821008DF820000003079007A92D483B
:100BB00001F08EFC4FF48050079007A9294801F0FE
:100BC00087FC09220D21274801F0CAFC09220C21CB
:100BD000244801F0C5FC00208DF8160001208DF896
:100BE00017008DF8180000208DF819008DF81A00F4
:100BF0008DF81B008DF812008DF8130002208DF87F
:100C0000140004208DF815000520ADF8100004A98B
:100C1000154800F0B8F90E208DF80A0000208DF874
:100C20000B0001208DF80C000020ADF80800012019
:100C30008DF80D000020ADF80000ADF80200ADF811
:100C40000400ADF80600684600F080F80022032199
:100C5000402002F06FFD01220221034800F08AF9D2
:100C600009B000BD000402400068004000B587B034
:100C700002210B4800F0EEF878B102AA00210848E2
:100C800000F00BFA0698009002A80FC802F0DCFCF6
:100C90000221034800F006F800BF07B000BD0000C5
:100CA00000680040B1F5007F3AD00FDC202928D041
:100CB00006DC01291CD004291DD0082940D11DE0E3
:100CC000402921D0B1F5807F3AD126E0B1F5004F1F
:100CD00031D006DCB1F5806F25D0B1F5006F2FD192
:100CE00024E0B1F5803F12D0B1F5003F28D111E0EA
:100CF000154A826025E00822C26022E01022C2600C
:100D00001FE0082202611CE01022026119E00822A3
:100D1000426016E01022426013E00422426010E0BC
:100D2000042242600DE0042242600AE00022826157
:100D30000422426005E0002282610422426000E059
:100D400000BF00BF704700000101010010B5002185
:100D5000837A012202FA03F13D4A126842F001024D
:100D60003B4B1A603A4A1C3212688A43384B1C3398
:100D70001A60027BCAB9364A0C3212688A43344B75
:100D80000C331A604288C38842EA0343304A403237
:100D9000847A42F834300288838842EA03432C4A3A
:100DA0004032847A02EBC4025360027B012A19D1DB
:100DB000274A0C3212680A43254B0C331A604288CA
:100DC000038842EA0343224A4032847A42F83430AC
:100DD000C288838842EA03431D4A4032847A02EB88
:100DE000C4025360C27A3AB9194A121D12688A4382
:100DF000174B1B1D1A6006E0154A121D12680A43A4
:100E0000134B1B1D1A60028932B9114A1432126841
:100E10008A430F4B14331A600289012A06D10C4A07
:100E2000143212680A430A4B14331A60427B012AB7
:100E300006D1074A1C3212680A43054B1C331A605C
:100E4000034A126822F00102014B1A6010BD000033
:100E50000066004070B504460D46002660692840D3
:100E6000002871D0B5F5807F5CD010DC082D35D01E
:100E700006DC012D20D0022D24D0042D72D127E0D4
:100E8000102D31D0202D35D0402D6BD138E0B5F567
:100E9000004F60D009DCB5F5007F49D0B5F5806F13
:100EA0004CD0B5F5006F5DD14FE0B5F5803F2DD04A
:100EB000B5F5003F56D12FE0A0682D4900F01FFA8C
:100EC000064651E0E068032100F019FA06464BE0BF
:100ED000E068082100F013FA064645E0E0681021BA
:100EE00000F00DFA06463FE02069032100F007FA02
:100EF000064639E02069082100F001FA064633E091
:100F00002069102100F0FBF906462DE060680821F9
:100F100000F0F5F9064627E06068102100F0EFF9CF
:100F2000064621E0A069012100F0E9F906461BE030
:100F3000A069022100F0E3F9064615E0A06904214A
:100F400000F0DDF906460FE00FE0A069702100F027
:100F5000D6F9064608E06068042100F0D0F906469C
:100F600002E0FFE7002600BF00E00026304670BD2B
:100F7000010101001AB143690B43436102E0436977
:100F80008B434361704730B502460020002314684C
:100F900024F002041460146844F00104146000E0BA
:100FA0005B1C546804F001041CB94FF6FF74A342A3
:100FB000F6D1546804F001040CB900206CE08C797F
:100FC000012C04D1146844F08004146003E0146818
:100FD00024F080041460CC79012C04D1146844F00E
:100FE0004004146003E0146824F0400414600C7A98
:100FF000012C04D1146844F02004146003E0146848
:1010000024F0200414604C7A012C04D1146844F0BC
:101010001004146003E0146824F0100414608C7A47
:10102000012C04D1146844F00804146003E014682F
:1010300024F008041460CC7A012C04D1146844F024
:101040000404146003E0146824F0040414608C7831
:10105000A407CD7844EA05640D7944EA05444D7946
:1010600044EA05540D886D1E2C43D461146824F0A5
:1010700001041460002300E05B1C546804F00104C8
:101080001CB14FF6FF74A342F6D1546804F001047A
:101090000CB1002000E0012030BD10B500F5D87380
:1010A00003EB01131B6803F004031372137A53B9A3
:1010B00000F5D87303EB01131B6840F2FF7404EAD8
:1010C0005353136009E000F5D87303EB01131B6859
:1010D0006FF0604404EAD303536000F5D87303EB68
:1010E00001131B6803F00203537200F5D87303EB7E
:1010F00001135B6803F00F03937200F5D87303EBE1
:1011000001135B681B0AD37400F5D87303EB01135A
:101110009B68D37200F5D87303EB01139B681C0A1C
:10112000147300F5D87303EB01139B681C0C547304
:1011300000F5D87303EB01139B681B0E937300F546
:10114000D87303EB0113DB68D37300F5D87303EB9B
:101150000113DB681C0A147400F5D87303EB011348
:10116000DB681C0C547400F5D87303EB0113DB68C7
:101170001B0E937421B9C36843F02003C36003E0DE
:10118000036943F02003036110BD0000F0B585B092
:1011900007460C4615461E460CB9009500E0019521
:1011A0008DF8084000208DF8090008208DF80A000D
:1011B000002005E0325C0DF10B010A54411CC8B25D
:1011C0000828F7DB6946384600F006F80149087040
:1011D00005B0F0BD7000002010B5024600209368F5
:1011E00003F08063B3F1806F00D110E0936803F0E7
:1011F0000063B3F1006F01D1012008E0936803F0B0
:101200008053B3F1805F01D1022000E00420042864
:1012100074D002F5C07303EB00131B6803F00104E4
:1012200002F5C07303EB00131C600B7A7BB94B7A99
:101230000C8843EA445302F5C07404EB001424689C
:10124000234302F5C07404EB0014236010E00B7A12
:101250004C6843EAC4034C7A234302F5C07404EBA0
:1012600000142468234302F5C07404EB00142360C7
:101270008B7A03F00F038B7202F5C07303EB00133C
:101280005B6823F00F0402F5C07303EB00135C608E
:1012900002F5C07303EB00135B688C7A234302F5FD
:1012A000C07404EB001463608B7B1C064B7B44EA28
:1012B00003440B7B44EA0323CC7A234302F5C07436
:1012C00004EB0014A3608B7C1C064B7C44EA0344B3
:1012D0000B7C44EA0323CC7B234302F5C07404EB6C
:1012E0000014E36002F5C07303EB00131B6843F0C6
:1012F000010402F5C07303EB00131C6010BD02462D
:10130000002002EA01030BB1012000E00020704739
:1013100010B5F3480078022803D0F248007E012877
:101320000AD10020F04981F83900F049C1F8F400F1
:10133000EF49C1F8CC01D1E1EB48B0F9340000EE3F
:10134000100AB8EEC00AEB4880ED000A90ED000AE2
:10135000DFEDE90A20EE200A80ED000AE24890ED78
:101360000B0AE448D0ED000A30EE200ADE4880ED9A
:101370000B0A00F08FFAE14880ED000AE04890ED9A
:10138000070ADE48D0ED000A30EE600AD64880ED4C
:10139000040A90ED040ADFEDDB0A30EE600A80ED0E
:1013A000060A90ED040ADFEDD70A30EE200A80ED40
:1013B000050A00BF90ED0B0AD0ED060AB4EEE00A74
:1013C000F1EE10FA04D890ED060A80ED0B0A0DE05C
:1013D000C54890ED0B0AD0ED050AB4EEE00AF1EE37
:1013E00010FA03DB90ED050A80ED0B0A00BFBF4841
:1013F000D0F8040100287DD1BB4890ED0B0AD0ED58
:10140000060AB4EE600AF1EE10FA08D090ED0B0A6D
:10141000D0ED050AB4EE600AF1EE10FA2DD1B54810
:1014200090ED000AB5EEC00AF1EE10FA0ED2AE4809
:1014300090ED0B0AD0ED060AB4EE600AF1EE10FA58
:1014400004D19FEDB10AAB4880ED000AA94890EDA8
:10145000000AB5EEC00AF1EE10FA0EDDA24890EDDA
:101460000B0AD0ED050AB4EE600AF1EE10FA04D1D1
:101470009FEDA50A9F4880ED000AA14890ED071A4C
:10148000F0EE410A984890ED0B1AB0EE410A9748E9
:10149000603002F0A9F99D4880ED000A9848D0ED2F
:1014A000020AB0EE600A062000F0E2FE984880EDE5
:1014B000000AB6EE000A974900F0CCFEF0EE000AF2
:1014C0008A48C030914991ED000A02F0B1FBF0EE7C
:1014D000000A91488F4991ED000A02F0A9FB834868
:1014E000D0ED300AB0EE600A8B48D0ED000A7F489C
:1014F000303000E00AE002F077F9BDEEC00A7B4828
:1015000080ED3D0A00207949C1F8FC007648B0F929
:10151000360000EE100AB8EEC00A804880ED000ADE
:1015200090ED000ADFED7E0A20EE200A80ED000A31
:101530006D4890ED0C0A7948D0ED000A30EE600A53
:10154000694880ED0C0A6A48D0F8DC0100286FD1A8
:10155000654890ED0C0AD0ED0A0AB4EE600AF1EE8F
:1015600010FA08D090ED0C0AD0ED090AB4EE600A2A
:10157000F1EE10FA2DD1694890ED000AB5EEC00ADF
:10158000F1EE10FA0ED2584890ED0C0AD0ED090A8F
:10159000B4EE600AF1EE10FA04D19FED5B0A5F48E9
:1015A00080ED000A5D4890ED000AB5EEC00AF1EE4C
:1015B00010FA0EDD4C4890ED0C0AD0ED0A0AB4EE9C
:1015C000600AF1EE10FA04D19FED4F0A534880ED06
:1015D000000A00F04BF9534880ED000A484890EDAE
:1015E0000A0A5048D0ED000A30EE200A3E4880ED4D
:1015F000080A90ED080AF2EE040A30EE600A80ED67
:101600000A0A90ED0A0ADFED480A30EE200A80ED62
:10161000090A00BF90ED0C0AD0ED0A0AB4EEE00A08
:10162000F1EE10FA05D890ED0A0A80ED0C0A0EE0F2
:1016300054E02D4890ED0C0AD0ED090AB4EEE00A12
:10164000F1EE10FA03DB90ED090A80ED0C0A00BF01
:101650002B4890ED0A1AF0EE410A234890ED0C1A3F
:10166000B0EE410A2248C03002F0BEF82F4880EDAB
:10167000000A2348D0ED010AB0EE600A062000F00F
:10168000F7FD2B4880ED000AB6EE000A294900F06C
:10169000E1FDF0EE000A2848244991ED000A02F02D
:1016A000C7FAF0EE000A2548224991ED000A02F03F
:1016B000BFFA0F48D0ED670AB0EE600A1F48D0EDC0
:1016C000000A0B48903002F08FF8BDEEC00A0848BF
:1016D00080ED730A00200649C1F8D40110BD000056
:1016E000F80100208C040020980200202C05002026
:1016F00034060020500000200000343D0800002087
:10170000040A00200000E44200000000380000202D
:101710002C00002030000020340000205400002065
:101720000000A03A100000209A99CF424800002003
:101730003C00002040000020D00700204400002092
:1017400008B500BF07F05AF900905EE02F4890F806
:10175000390068B92E4890F8320048B106F0FCF81C
:1017600000F0AAF806F03EF90120284981F8390076
:10177000264890F83900012843D1264800780328EC
:101780002DD12548B0F90C0000EE100AB8EEC00AC1
:101790002248D0ED000A1D4890ED021A00EE810AA1
:1017A000BDEEC00A10EE100A00B2184988861A4829
:1017B000C0891A2110FB01F000EE100AB8EEC00A31
:1017C0001648D0ED010A114890ED031A10EE810A77
:1017D000BDEEC00A10EE100A01B20C48C1860D48D9
:1017E000007801280BD10C488089084988860A486E
:1017F000C08940421A21484301B20448C186FFF71C
:1018000087FD0A21684606F023FA9FE79802002028
:10181000040A0020F80100208C040020BC040020F1
:1018200008B500BF07F0EAF8009018E00C4800780F
:1018300018B900210B48C0F8B4130A4BB3F8B433FD
:101840001AB2084BB3F8CC3119B2074BB3F8F430E5
:1018500018B2FFF7A7F80A21684606F0F9F9E5E79C
:1018600048010020340600202C0500200748D0F84D
:10187000BC01A0F580500E3800EE100AB8EEC00A88
:10188000DFED030A20EE200A704700003406002036
:101890000000A03A0648D0F8DC007B3000EE100AC9
:1018A000B8EEC00ADFED030A20EE200A7047000000
:1018B0002C0500200000343D10B59FED2E0A2E4867
:1018C00080ED020A00224FF4FA719FED2C1ADFED31
:1018D0002C0AB2EE060A2B4801F05EFF002242F20B
:1018E00010719FED271ADFED260AB3EE0E0A254888
:1018F000303801F051FF244890ED070A1E4880ED72
:101900000B0A214890ED070A1B4880ED000A9FED65
:101910001F0A80ED030A4FF47A7291009FED1C1AA2
:10192000DFED1C0AB9EE060A1B4801F035FF002264
:101930004FF4FA51B3EE0E1ADFED110AB2EE040ABB
:101940001548303801F028FF0F4890ED0A0A0A4880
:1019500080ED0C0A1048C038D0F8BC010E49C039DF
:10196000C1F8C401084890ED0A0A034880ED010A55
:1019700010BD00000AD7A33C9802002000001643C7
:10198000000000008C050020040A00207CF0413F8C
:101990000000B4C200000080F406002010B5064824
:1019A000007800B110BD4FF4E13003F041F80120A0
:1019B0000149087000BFF5E7B001002008B500BF7D
:1019C00007F01CF8009040E00021102000F02AFFF2
:1019D00070B90021112000F025FF30B11B4840787C
:1019E000012802D100201A49487100201849887046
:1019F00000210D2000F016FF38B101F031FA20B1BE
:101A00000120144908701449087000210E2000F0CC
:101A100009FF40B10F48007828B101F021FA10B158
:101A200002200D49087000210F2000F0FBFE40B19C
:101A30000848007828B101F013FA10B103200649D4
:101A400008700A21684606F003F9BDE78C040020FF
:101A50005C000020490100204801002008B500BFBB
:101A600006F0CCFF0090CCE066480078012811D148
:101A700064484078012802D0032809D103E00220FD
:101A80006149087005E004F099FD01F023FB00E0D6
:101A900000BF00BF5B48007803287DD15A49087019
:101AA00058484078012804D0022876D0032875D100
:101AB00086E00021112000F0B5FE28BB0021102097
:101AC00000F0B0FE10B9002002F0F8FA0121102059
:101AD00000F0A8FE01280BD100204C494871C870C5
:101AE0000846C07820B90120C870022002F0E6FA4A
:101AF0000221102000F096FE012812D14449096C01
:101B0000880802F0DBFA0CE00021102000F08AFEC9
:101B100038B13E48807820B901203C49887002F0F5
:101B200057FB3C4890ED010ADFED3B0AB4EEE00ABA
:101B3000F1EE10FA07DD01F093F920B100203749EA
:101B4000087037490870334890ED000ADFED320A1B
:101B5000B4EEE00AF1EE10FA07DD01F081F920B1F0
:101B600001202F4908702D4908702A4890ED010A7C
:101B7000DFED2C0AB4EEE00AF1EE10FA08D201F023
:101B80006FF928B12648007810B102202349087067
:101B9000204890ED000A02E01AE014E016E0DFEDC4
:101BA000210AB4EEE00AF1EE10FA08D201F058F979
:101BB00028B11B48007810B103201849087006E0CE
:101BC00001F088FA03E002F003FB00E000BF00BF71
:101BD0000C480078022810D103200B4908700948EE
:101BE0004078012804D0022804D0032803D100E063
:101BF00002E001E000E000BF00BF0A21684606F0F5
:101C000027F831E78C040020F80100205C00002058
:101C1000E4040020A80400200000C843480100207C
:101C2000490100200000C8C321B1026842F001024E
:101C3000026003E0026822F00102026070470000C7
:101C4000016821F0010101600021016041608160B3
:101C5000C1600161212141614A49884204D13D218D
:101C6000484A103A91608CE046491831884205D1C3
:101C70004FF47461434A103A916082E04149303137
:101C8000884205D14FF474113E4A103A916078E0D1
:101C90003C494831884205D14FF07461394A103AC5
:101CA00091606EE037496031884204D13649354A47
:101CB000103AD16065E033497831884204D1334924
:101CC000304A103AD1605CE02E499031884204D10C
:101CD0002F492C4A103AD16053E02A49A831884252
:101CE00005D14FF03D51274A103AD16049E02949CA
:101CF000884204D13D21274A083A116041E0254934
:101D00001831884205D14FF47461224A083A1160B3
:101D100037E020493031884205D14FF474111D4A13
:101D2000083A11602DE01B494831884205D14FF037
:101D30007461184A083A116023E0164960318842FC
:101D400004D11149134A121F11601AE01149783168
:101D5000884204D10D490F4A121F116011E00D494C
:101D60009031884204D10A490A4A121F116008E0E2
:101D70000849A831884204D14FF03D51054A121F4D
:101D800011607047106002403D000020400F0020AD
:101D900000003D2010640240014600200A6802F065
:101DA00001020AB1012000E00020704701464868A6
:101DB00080B2704710B500220268134B1A40CC68FD
:101DC0000B6823434C6923438C692343CC69234329
:101DD0000C6A23434C6A23438C6A23434C6B234392
:101DE0008C6B23431A430260426922F00702D1E957
:101DF0000B3423431A4342610B6943604B68836091
:101E00008B68C36010BD00003F801CF041607047CC
:101E100010B5044604B910BD2078617840EA01206D
:101E2000C0F30A006D49488008464088A0F58060EC
:101E300000B248806078C010A17840EA4110C0F339
:101E40000A006649888008468088A0F5806000B254
:101E50008880A0788011E17840EA8100217940EA09
:101E60008120C0F30A005D49C8800846C088A0F5FB
:101E7000806000B2C88020794010617940EAC110CA
:101E8000C0F30A005549088108460089A0F5806022
:101E900000B2088160790011800808706079C0F391
:101EA00001104870A079E17940EA012001B24B4865
:101EB0008181207A617A40EA012001B24748C181DC
:101EC000A07AE17A40EA012001B244480182207BF5
:101ED00042498872617B4148C172A07BE17B40EA44
:101EE00001203E494882207C617C40EA01203B4938
:101EF00088820846808AA0F5806088820846C08A69
:101F0000401CC8820846B0F90200142807DC0846C5
:101F1000B0F9020010F1140F01DB002048802F48B7
:101F2000B0F90400142808DC2C48B0F9040010F1C2
:101F3000140F02DB0020294988802848B0F90600E8
:101F4000142808DC2548B0F9060010F1140F02DB54
:101F500000202249C8802148B0F90800142808DC74
:101F60001E48B0F9080010F1140F02DB00201B49D5
:101F700008811A48808AB0F5257F02DD00201749C4
:101F800088821648B0F9080001EE100AB8EEC11AAE
:101F9000F0EE410A1148B0F9060001EE100AB8EE61
:101FA000C11AB0EE410A0E4801F0B0FD0B48B0F97D
:101FB000040001EE100AB8EEC11AF0EE410A07481B
:101FC000B0F9020001EE100AB8EEC11AB0EE410AF3
:101FD000044801F09BFD00BF1DE700008C040020B9
:101FE000A8040020BC04002010B50848007800B107
:101FF00010BD074802F084FC1421064802F0D2FC10
:1020000001200249087000BFF2E700003001002003
:10201000A0860100D004002001480078704700002D
:10202000300100200EB500241C2500BF0026002032
:102030000190029000BF06F0E1FC00904FE0641CAC
:102040000A2C05D1002400F053F801F04BFD6D1E61
:1020500000F036FCF7EE000AB4EE600AF1EE10FA7A
:102060000CD11F488078012808D13046761CB0F585
:10207000FA7F03DD01201A49C87002E000201849E8
:10208000C8701DB901201749086019251548006856
:10209000012808D1144890F8CA03012803D0002170
:1020A000114880F8CA131148D0F8040148B10199C9
:1020B000481C0190642904DD0021084601F0ECFB76
:1020C00000BF0948D0F8DC0148B10299481C0290D1
:1020D000642904DD0021012001F0DEFB00BFAEE732
:1020E00049010020FC010020340600202C050020BE
:1020F00010B55048C08A052807DA01204D490876F6
:102100000021084601F0AAF806E0002049490876B7
:102110000221494800F065FA00204649C882474834
:10212000D0F8C003052808DA01214448C0F8C413D8
:102130000021012001F092F807E000213F48C0F89B
:10214000C41304213C4800F04CFA00213B48C0F87D
:10215000C0133B48D0F80001052808DA01203849AF
:10216000C1F804010021022001F078F807E0002006
:102170003349C1F8040108212F4800F032FA002049
:102180002F49C1F800012D48D0F8D801052808DAF8
:1021900001202A49C1F8DC010021032001F05EF88A
:1021A00007E000202549C1F8DC011021224800F099
:1021B00018FA00202149C1F8D8012248008E0328CE
:1021C00008DA01201F4981F834000021042001F0C1
:1021D00045F807E000201B4981F83400202116480B
:1021E00000F0FFF90020174908861748C078012839
:1021F00004D14021104800F0F4F903E0002105204B
:1022000001F02CF811488088022807DA01200F49D4
:10221000C87100210A2001F021F807E000200B49D5
:10222000C8714FF400610A4800F0DBF9002007494B
:10223000888010BD8C040020001802403406002065
:102240002C050020040A0020490100205C01002028
:1022500000100240D0ED000A91ED001A30EEC11AD4
:10226000D1ED000A40EE010AC1ED000A70470000FE
:1022700070B52DED048BB0EE408A04469FED1A0A2E
:10228000B0EE409A2646B00004F04AFA05461748D8
:10229000007805EB800080ED008A002009E005EB66
:1022A000800191ED000A30EE090AB0EE409A411C1F
:1022B000C8B2A042F3DB0D480078401C0B490870FF
:1022C00008460078A04201D10020087000EE104AB4
:1022D000B8EE400AC9EE008A284604F0F9F8B0EEDC
:1022E000680ABDEC048B70BD000000005A0000209D
:1022F00010B50020074948700749087005498870E3
:1023000008704FF47A7244F61F61B32002F020F88F
:1023100010BD0000490100204801002010B504460E
:10232000002C71D0012C04D0022C37D0032C6CD19E
:102330006CE0012062490870624988806248604907
:10234000097830F811005F49C88008464088C9887C
:10235000401A5C49B1F90410884207DD59484088A9
:1023600058498988401A5749488016E0554840889E
:102370005449C988401A5349B1F904104942884266
:1023800007DA504840884F49898808444D494880B9
:1023900003E04C48C0884B49488082E0022048490D
:1023A000087001204749888047484549097830F836
:1023B00011004449C88008464088C988401A4149EC
:1023C000B1F90410884207DD3E4840883D498988BC
:1023D000401A3C49488016E03A4840883949C98843
:1023E000401A3849B1F904104942884207DA3548A1
:1023F00040883449898808443249488003E031489C
:10240000C088304948804CE036E049E003202C4940
:10241000087001202B4988802B482949097830F819
:1024200011002849C88008464088C988401A2549B3
:10243000B1F90410884207DD224840882149898883
:10244000401A2049488016E01E4840881D49C98826
:10245000401A1C49B1F904104942884207DA194868
:1024600040881849898808441649488003E015487F
:10247000C0881449488014E00020114908700120E8
:102480001049888010480E49097830F811000D492C
:10249000C8804FF47A70488000200C49487000E0F2
:1024A00000BF00BF074840880649C988884202D15A
:1024B0000120064948700349488804F031F810BDEE
:1024C00048010020400100200C9000084901002034
:1024D000F0B50A4600210023002400BF3DE001259D
:1024E00005FA01F3156805EA03049C4234D1056836
:1024F0004F000326BE40B543056015794E00B54038
:102500000668354305601579012D02D01579022D35
:1025100016D185684F000326BE40B54385605579C6
:102520004E00B540866835438560456801268E407B
:10253000B5434560456896798E40B6B235434560EF
:10254000C5684F000326BE40B543C560D5794E002F
:10255000B540C6683543C560491C1029BFD3F0BDDE
:10256000F0B5002300244D07ED0E02FA05F3CE105E
:1025700000F1200555F826504E07F70E0F26BE40F5
:10258000B543CF1000F1200646F82750CE1000F1D9
:10259000200555F8265045EA0304CE1000F1200529
:1025A00045F82640F0BD2DE9FC4707460C46154688
:1025B0001E46DDE90A890121384601F0B3F900958C
:1025C0008DF804608DF806808DF8079003208DF853
:1025D000050069462046FFF77BFFBDE8FC870183C5
:1025E000704742694A40426170470AB1018300E086
:1025F0004183704701460022002004E00B5C134435
:10260000DAB2431CD8B21128F8DB487C904201D1E1
:10261000012070470020FCE710B54FF4E13002F0D4
:10262000ABF81E21014802F0F9F810BD3C0A002069
:10263000FEB506460F4614460025E8E0705D5A28B0
:102640007ED1681C305C5A28FAD17019FFF7D2FF8E
:10265000002876D0681D315C281D305C41EA0020DE
:1026600000B2ADF80000E81D315CA81D305C41EA05
:10267000002000B2ADF8020005F10900315C401EF7
:10268000305C41EA002000B2ADF8040005F10B0017
:10269000315C401E305C41EA002000B2ADF806001B
:1026A00005F10D00315C401E305C41EA002000B2B3
:1026B000ADF8080005F10F00315C401E305C41EAC6
:1026C000002000B2ADF80A00BDF9000000EE100ACB
:1026D000B8EEC00AF3EE000A80EE201A84ED001A6C
:1026E000BDF9020000EE100AB8EEC00AF3EE000ACF
:1026F00080EE201A84ED011ABDF9040000EE100AE4
:10270000B8EEC00AF3EE000A80EE201A84ED021A39
:10271000BDF8060080B200EE100AB8EE400ADFED08
:102720003E0A80EE201A84ED051ABDF9080000EE7D
:10273000100AB8EEC00ADFED380A80EE201A01E078
:1027400063E05FE084ED031ABDF90A0000EE100AB1
:10275000B8EEC00ADFED300A80EE201A84ED041ACC
:1027600005F11000305C84F8320094ED050AD4EDD8
:10277000060A30EE600ADFED290AB4EEE00AF1EE57
:1027800010FA07D294ED080AF7EE000A30EE200A9C
:1027900084ED080A94ED060AD4ED050A30EE600ACD
:1027A000DFED1E0AB4EEE00AF1EE10FA07D294ED66
:1027B000080AF7EE000A30EE600A84ED080A94ED8C
:1027C000050AD4ED080A9FED161A01EE200A84EDE1
:1027D000070A94ED050A84ED060A94ED030AD4ED88
:1027E0000B0A9FED0F1A01EE200A84ED0A0A94ED00
:1027F000030A84ED090A208E401C2086012084F8FB
:102800003300FEBD681C85B201E0681C85B2BD4284
:10281000FFF614AF00BFF4E70000C8420000C8C2D2
:102820000000B443024651B1012902D0022912D15D
:102830000BE00A480068D04000F0010070470848EB
:102840000068D04000F00100F8E706480068D0407A
:1028500000F00100F2E70020F0E700003401002062
:102860003C0100203801002030B5034613B94FF673
:10287000FF7030BD09E013F8014B82EA0400C0B2DA
:10288000054D35F8100080EA2222081EA1F1010151
:10289000F1D11046EDE700001691000830B503466F
:1028A00005E013F8010B80EA02040448025D081EEB
:1028B000A1F10101F5D1104630BD000015900008CE
:1028C0000448807BC0F3800000EE100AB8EE400A96
:1028D00070470000860B0020014800787047000018
:1028E000B201002010B50648007800B110BD00F01C
:1028F000CDFEFFF791FE01200149087000BFF5E70A
:10290000B20100207FB588B0DDE91065234800786A
:10291000401C22490870A5208DF8040013208DF872
:10292000050000208DF80600084600788DF80700A5
:10293000FF22042101A8FFF7B1FF8DF80800012054
:102940008DF8090003208DF80A0080208DF80B0017
:10295000D1208DF80C00F0B28DF80D0000208DF81C
:102960000E00E8B28DF80F00280A8DF810000D2235
:1029700008A90DF11100FDF791FC1C2101A8FEF73B
:1029800021F8002405E001A8015D054802F050FA95
:10299000641C1C2CF7DB0CB070BD0000AC010020E7
:1029A0000048004070B505460E4605B970BDA74801
:1029B0008088401CA5498880002441E1285DA52825
:1029C00073D1601D295CA01D285C41EA002040F203
:1029D0000721884204D19D480068401C9B4908603B
:1029E000601D295CA01D285C41EA002040F2022203
:1029F000811A90426FD015DC40F20112A0EB020167
:102A0000904256D006DC01281BD002282DD0032886
:102A100071D13BE001295FD0022972D0B1F5807FEE
:102A2000F6D185E0042968D006DC01297AD0022994
:102A300079D00329ECD1C5E0052975D0FF29E7D16C
:102A4000F7E028190C2102F003FA01280AD128190D
:102A50007F49B0F807200A80407A887004F10C00A2
:102A600084B201E0601C84B2E7E028190A2102F078
:102A7000EFF9012807D128197649C079087004F1C7
:102A80000A0084B201E0601C84B2D6E028190B2150
:102A900002F0DEF9012809D128196F49B0F80700C2
:102AA000088004F10B0084B202E0C7E0601C84B22D
:102AB000C3E028190D2102F0CBF9012808D128190B
:102AC0006649D0F80700086004F10D0084B201E007
:102AD000601C84B2B1E03EE028190C2102F0B8F984
:102AE00001280BD128195E49D0F80700086004F1CD
:102AF0000C0084B204E09DE003E075E0601C84B249
:102B00009BE028190B2102F0A3F901280DD1281907
:102B10005449B0F807200A80407A887004F10B000D
:102B200084B204E02AE03CE06FE0601C84B284E000
:102B30002819182102F08CF9012809D12819C11D82
:102B40000F224948FDF7AAFB04F1180084B201E006
:102B5000601C84B271E02819172102F079F901286C
:102B600009D12819C11D0E224048FDF797FB04F139
:102B7000170084B201E0601C84B25EE028191921BC
:102B800002F066F9012809D12819C11D1022384820
:102B9000FDF784FB04F1190084B201E0601C84B2EB
:102BA0004BE028190A2102F053F9012807D128190E
:102BB0003049C079087004F10A0084B201E0601C59
:102BC00084B23AE028190C2102F042F9012808D118
:102BD00028192949B0F80700088004F10C0084B2D4
:102BE00001E0601C84B228E028190A2102F030F9C3
:102BF000012807D128192149C079087004F10A0079
:102C000084B201E0601C84B217E028190F2102F0A1
:102C10001FF901280AD128191949C01C42680A6005
:102C20000089888004F10F0084B201E0601C84B246
:102C300003E002E0601C84B200BF01E0601C84B2CB
:102C4000B442FFF6BBAE00BFB0E600005C0100205E
:102C5000680100206B0100206C0100206E01002043
:102C60007201002076010020860B0020950B0020C9
:102C7000A30B0020790100207A0100207C010020B4
:102C80007D010020014800787047000058010020B5
:102C900010B50B48007800B110BD4FF4E13001F0E1
:102CA0004DFF4FF49671074801F09CFF0020064944
:102CB0000860887101200249087000BFECE700003D
:102CC000580100205A0A00205C0100208AB000BF91
:102CD00005F094FE0990AAE055480068012876D1D5
:102CE000544880790028FAD15348D0ED070A534858
:102CF00090ED001A70EEC10AB0EE600AF0EE000A24
:102D000008A800F095FF4C48D0ED0A0A4B4890ED1A
:102D1000011A70EEC10AB0EE600AF0EE000A07A8D0
:102D200000F086FF00240FE001209DED080A04F06A
:102D300077FC02209DED070A04F072FC0320B0EE40
:102D4000480A04F06DFC641C032CEDDB3C48007E5B
:102D500020B90121084604F053FC03E000210120C2
:102D600004F04EFC3748D0F8BC03012808D136489F
:102D70000078012804D10121022004F041FC03E085
:102D80000021022004F03CFC3048D0F8040120B9B6
:102D90000121032004F034FC03E00021032004F0AF
:102DA0002FFC2848D0F8DC0120B90121042004F0D0
:102DB00027FC03E00021042004F022FC1E4890F8C8
:102DC000340028B90121052004F01AFC04E01FE0BA
:102DD0000021052004F014FC1D48C078012804D10E
:102DE0000121062004F00CFC03E00021062004F081
:102DF00007FC18484089184949790D22CDE900108F
:102E0000164903A8FDF74AFA03A80FC8FFF77AFD91
:102E100007480068012806D106488079012802D1B8
:102E2000002004498871C82109A804F011FF53E764
:102E3000FC0100205C010020040A00209802002010
:102E40008C040020340600205C0000202C050020AB
:102E5000490100209201002084010020B30B0020D2
:102E600000B500210D20FFF7DDFC28B100210E2068
:102E7000FFF7D8FC002871D100210D20FFF7D2FC0C
:102E800028B100210F20FFF7CDFC002866D10021DA
:102E90000F20FFF7C7FC20B100210E20FFF7C2FC76
:102EA000F0BB00210D20FFF7BDFC48B100210E2032
:102EB000FFF7B8FC20B100210F20FFF7B3FC78BB6F
:102EC000284890ED010ADFED280AB4EEE00AF1EEA1
:102ED00010FA08DD90ED000ADFED230AB4EEE00AF7
:102EE000F1EE10FA3ADC1F4890ED010ADFED1E0A00
:102EF000B4EEE00AF1EE10FA08DD90ED000ADFED25
:102F00001B0AB4EEE00AF1EE10FA27D3154890ED53
:102F1000000ADFED150AB4EEE00AF1EE10FA00E067
:102F20001CE008DD90ED010ADFED100AB4EEE00AC6
:102F3000F1EE10FA12D30B4890ED010ADFED0B0A07
:102F4000B4EEE00AF1EE10FA0AD290ED000ADFEDDD
:102F5000070AB4EEE00AF1EE10FA01D2002000BD3B
:102F60000120FCE7A80400200000C8430000C8C3FB
:102F70000021084880F8CC1380F8C913C0F88813E2
:102F800080F8CD1380F8C813D0F8A413C0F8AC13A0
:102F9000704700003406002010B52DED068B49481F
:102FA000D0F8B403002803DD4648D0F8B40303E0AA
:102FB0004448D0F8B403404241F27C51884238DDA5
:102FC0004048D0F89003002803DD3E48D0F8900335
:102FD00003E03C48D0F890034042282829DA3A48D8
:102FE0000068FDF707FB41EC1A0BB0EE4A0AF0EE61
:102FF0006A0A00F011FFB0EE408AF0EE608A3149B3
:10300000D1F88803D1F88813491C2E4AC2F88813D6
:10301000FDF7F0FA41EC190B53EC182BFDF70EFB02
:1030200007D203F0DDFA40B90121264880F8C91320
:1030300003E00021234880F8C913224890F8C9030F
:1030400070B300211F4880F8CD139FED200B00F0D6
:10305000E3FEB0EE408AF0EE608A1A49D1F88803A8
:10306000D1F88813491C174AC2F88813FDF7C2FA31
:1030700041EC190B53EC182BFDF7E0FA11D2114873
:10308000D0F8A413C0F8AC1390F8C803002815DBDF
:103090000C4890F8C803401CC1B20A4880F8C81315
:1030A0000CE0084890F8C903012807D10548D0F87A
:1030B000AC0300F5C0300349C1F8AC03BDEC068B8E
:1030C00010BD000034060020640000200000000055
:1030D0000000F03F0020084948714870002107486F
:1030E00080F8CD1390EDE40AB8EEC00A80EDE10A55
:1030F000C0F8B413704700005C00002034060020C4
:103100001CB50121702000F00DFC01208DF8040099
:1031100000208DF806008DF807008DF805004FF4AB
:103120008040009069460F48FFF7D2F94FF40060E5
:10313000009069460C48FFF7CBF94FF4FF70009000
:1031400069460A48FFF7C4F90121082000F086F813
:103150000121092000F082F801210A2000F07EF808
:103160001CBD000000140240001002400018024084
:1031700010B5012403F0C0FA044000F0ABFB04409A
:10318000FEF74AFF044000F07FFC0440FFF7A4FB79
:103190000440FFF777FD044074B104E03222114689
:1031A000092000F047F80C4801780078401C0A4AD2
:1031B00010700529F2DB0DE004E0322211460A20EE
:1031C00000F038F8044801780078401C024A10707A
:1031D0000529F2DB10BD00002C0100201CB50121E7
:1031E000402000F09FFB01208DF8040000208DF8A6
:1031F00006008DF807008DF805004FF40050009090
:1032000069460548FFF764F900224FF4005102486F
:10321000FFF7EBF91CBD00000018024010B50024B8
:1032200005E00121204600F019F8601CC4B20A2C08
:10323000F7DB10BD70B506460C461546002130463A
:1032400000F00CF8204603F017F90121304600F099
:1032500005F8284603F010F970BD000070B504466B
:103260000D460B2C00DD70BD04EB4402064B03EB56
:103270008202928891B204EB440253F822002A465B
:10328000FFF7B3F900BFEEE7A800002030B5024613
:1032900040F20623994200D1002040F207239942D0
:1032A00000D101205378147843EA042300EB400452
:1032B000C4EB8014834D05EBC404C4F8A431D37867
:1032C000947843EA04231BB200EB4004C4EB80145F
:1032D00005EBC404C4F8A8315379147943EA0423F4
:1032E0001BB200EB4004C4EB801405EBC404C4F82B
:1032F000AC3100EB4003C3EB80132C4604EBC3035B
:10330000D3F8A43100EB4004C4EB801405EBC404F3
:10331000D4F8B0411B1B6C4CA34211DA00EB400304
:10332000C3EB80132C4604EBC303D3F8C0315B1C02
:1033300000EB4004C4EB801405EBC404C4F8C031B6
:1033400000EB4003C3EB80135E4C04EBC303D3F8E4
:10335000B03100EB4004C4EB80145A4D05EBC404BB
:10336000D4F8A4411B1B584CA34211DA00EB4003D4
:10337000C3EB80132C4604EBC303D3F8C0315B1EB0
:1033800000EB4004C4EB801405EBC404C4F8C03166
:1033900000EB4003C3EB80134A4C04EBC303D3F8A8
:1033A000A43100EB4004C4EB8014464D05EBC4048B
:1033B000D4F8C0414FF4005505FB043300EB400442
:1033C000C4EB80143F4D05EBC404C4F8BC3100EBE2
:1033D0004003C3EB80132C4604EBC303D3F8A431A2
:1033E00000EB4004C4EB801405EBC404C4F8B03116
:1033F00000EB4003C3EB80132C4604EBC303D3F86C
:10340000BC3100EB4004C4EB801405EBC404D4F8D9
:10341000B8411B1B09D5002300EB4004C4EB80140A
:1034200005EBC40484F8E3311DE000EB4003C3EB7B
:103430008013244C04EBC303D3F8BC3100EB4004ED
:10344000C4EB80141F4D05EBC404D4F8B8411B1B1A
:10345000002B08DD012300EB4004C4EB801405EBD6
:10346000C40484F8E33100EB4003C3EB8013154C34
:1034700004EBC303D3F8BC3100EB4004C4EB80146D
:10348000104D05EBC404C4F8B83100EB4003C3EBA6
:1034900080132C4604EBC303D3F8D8315B1C00EB3C
:1034A0004004C4EB801405EBC404C4F8D8310123F4
:1034B00000EB4004C4EB801405EBC404C4F8D43121
:1034C00030BD00003406002090E8FFFF10B540F248
:1034D0000522914200D010BD4278037842EA0322CF
:1034E000294BC3F8C420C278837842EA032212B27F
:1034F000254BC3F8C8204279037942EA032212B26D
:10350000214BC3F8CC208279C3F8E4201A46D2F8C4
:10351000C420D3F8D030D21A1C4B9A4206DA1A4A89
:10352000D2F8E020521C184BC3F8E020164AD2F81B
:10353000D020154BD3F8C430D21A144B9A4206DA75
:10354000114AD2F8E020521E0F4BC3F8E0200E4A79
:10355000D2F8C4200C4BD3F8E0304FF4005404FBF5
:103560000322094BC3F8DC201A46D2F8C420C3F862
:10357000D0201A46D2F80021521CC3F800210122A3
:10358000C3F8FC2000BFA6E72C05002090E8FFFF51
:103590000CB52B48817EC07E41EA002000B2ADF818
:1035A00000002748017F407F41EA002000B2ADF8CB
:1035B00002002348817FC07F41EA002000B2ADF8BD
:1035C00004001F4890F8201090F8210041EA0020E4
:1035D00000B2ADF80600BDF9000000EE100AB8EE2A
:1035E000C00ADFED180A80EE201A154880ED051A92
:1035F000BDF9040000EE100AB8EEC00ADFED110AB2
:1036000080EE201A0E4880ED041ABDF9020000EE8B
:10361000100AB8EEC00AF3EE000A80EE201A08483D
:1036200080ED021ABDF9060000EE100AB8EEC00ADD
:10363000F3EE000A80EE201A014880ED001A0CBD5E
:10364000D00B00200000C8420FB410B540F2134167
:103650000298884202D010BC5DF814FB0A48DDF8DD
:1036600013100160DDF817104160FFF791FF064865
:103670001A38008B401C04491A390883012081F84C
:10368000220000BFE7E70000EA0B002010B5054864
:10369000007800B110BDFDF773FA012001490870F0
:1036A00000BFF7E7AF01002070B5002100230F2213
:1036B000C4781CB3174C246804F4E064C4F5E064D7
:1036C000C4F30721C1F10404E3B20A4144789C40E9
:1036D000E1B28478144021430C07210E0E4C05788A
:1036E0006155047804F01F050124AC4005786D1184
:1036F000AD0005F1E025C5F8004109E0047804F0CB
:103700001F050124AC40054D0678761145F826408A
:1037100070BD00000CED00E000E400E080E100E09E
:1037200002490143024A1160704700000000FA0597
:103730000CED00E0F8B506460C461546F0B28DF8E3
:103740000000E0B28DF80100E8B28DF8020001201F
:103750008DF803006846FFF7A7FFF8BD10B54FF4DA
:103760004070FFF7DDFF10BD1CB5064801210023A6
:103770008022CDE9001004A1064805F0FFF804F00E
:1037800041FC1CBDCC01002073746172745F7461D4
:10379000736B0000E9760008DFED121AC0ED001A25
:1037A000DFED101AC0ED011A8162C262DFED0D1A61
:1037B000C0ED021ADFED0B1AC0ED031ADFED091A96
:1037C000C0ED041ADFED071AC0ED051A80ED060AF8
:1037D000C0ED070A80ED081ADFED021AC0ED091AE4
:1037E000704700000000000008B50146F0EE401AE6
:1037F000B0EE602AC1ED001A81ED012A91ED000AB8
:10380000D1ED010A30EE600A81ED020A91ED050A60
:10381000D1ED020A30EE200A81ED050A91ED060A8B
:10382000D1ED020A20EE200AF0EE402A91ED070ABF
:10383000D1ED050A20EE200A8DED000A91ED020A75
:10384000D1ED030A30EE600AD1ED080A20EE200A1D
:10385000B0EE403AD1ED0B0AF8EE600AB0EE600A25
:10386000684602F097FD9DED000A32EE800A30EEC8
:10387000030A81ED090AD1ED0A0AF8EE600AB0EEFA
:10388000600A01F1240002F085FD91ED020A81ED4C
:10389000030A91ED090A08BD70B506460D4636B11A
:1038A000012E06D0022E06D0032E08D105E00424F6
:1038B00006E0082404E0102402E0202400E000BF19
:1038C00000BF2A4621460248FEF78FFE70BD000069
:1038D000001C02400148007870470000AE01002043
:1038E00010B53C210148FEF77AFE10BD001C0240D5
:1038F0001CB50A48007800B11CBD002000900123CF
:103900003C22074901908020FEF74DFEFFF7E8FFBB
:1039100001200249087000BFEEE70000AE01002060
:10392000001C024029B1064A12680243044B1A6087
:1039300004E0034A12688243014B1A60704700009A
:103940003038024029B1064A12680243044B1A601B
:1039500004E0034A12688243014B1A60704700007A
:103960004038024029B1064A12680243044B1A60EB
:1039700004E0034A12688243014B1A60704700005A
:1039800044380240F0B50021002200240225002620
:103990000223324F3F6807F00C0121B1042905D002
:1039A000082937D105E02E4F076036E02D4F07601C
:1039B00033E02A4F3F1F3F68C7F38056274F3F1F12
:1039C0003F6807F03F036EB1264FB7FBF3F7DFF810
:1039D0008CC0ACF1040CDCF800C0CCF3881C07FBF5
:1039E0000CF40CE01E4FB7FBF3F7DFF870C0ACF13E
:1039F000040CDCF800C0CCF3881C07FB0CF4174F58
:103A00003F1F3F68C7F301477F1C7D00B4FBF5F7FC
:103A1000076002E0124F076000BF00BF0F4F3F6812
:103A200007F0F0010909104F7A5C0768D74047603A
:103A30000A4F3F6807F4E051890A0B4F7A5C4768E8
:103A4000D7408760054F3F6807F46041490B064F38
:103A50007A5C4768D740C760F0BD00000838024074
:103A60000024F400001BB7007802002010B50548C0
:103A7000007800B110BDFCF7DDFF0120014908709E
:103A800000BFF7E7B101002001480078704700004F
:103A9000B10100202DE9FC4180460C4615461E462A
:103AA000089F200A8DF80000E0B28DF80100280A76
:103AB0008DF80200E8B28DF80300300A8DF804009A
:103AC000F0B28DF80500380A8DF80600F8B28DF8CE
:103AD00007006B4640F2FF1200214046FDF756FBFF
:103AE000BDE8FC81084890F8C803052804DC0021E3
:103AF000054880F8CA1306E00121034880F8CA137C
:103B0000002180F8C81370473406002010B52DED51
:103B10000A8BB0EE408AF0EE608A044684ED008A9B
:103B2000C4ED018A94ED000A10EE101A0846FCF765
:103B300072FD41EC1A0B94ED010A10EE101A0846C2
:103B4000FCF769FD41EC1B0BB0EE4A1AF0EE6A1A65
:103B5000B0EE4B0AF0EE6B0A01F032FBB0EE409A89
:103B6000F0EE609A51EC190BFCF780FDA06094ED2B
:103B7000020ADFED2B0A20EE200ADFED2A0A80EE92
:103B8000201A84ED031A94ED010A10EE101A08466B
:103B9000FCF741FD41EC1C0B9FED231BB0EE4C0AE2
:103BA000F0EE6C0A01F004FCB0EE40AAF0EE60AA60
:103BB00094ED000A10EE101A0846FCF72CFD41ECBB
:103BC0001C0B9FED191BB0EE4C0AF0EE6C0A01F0D5
:103BD000EFFBB0EE40BAF0EE60BA53EC1A2B51ECAA
:103BE0001B0BFCF77FFB41EC190BFCF73FFD00EED4
:103BF000100AF1EEC00AC4ED040A94ED030ADFEDE9
:103C0000080AB4EEE00AF1EE10FA05DD94ED040ABC
:103C1000B1EE400A84ED040ABDEC0A8B10BD000031
:103C200000003443DB0F494000000000000000406A
:103C300010B52DED0A8BF0EE408A0446B0EE608A96
:103C4000F5EEC08AF1EE10FA27DB18EE100AFCF749
:103C5000E2FC41EC1C0B9FED260B53EC102BFCF708
:103C6000E8FB41EC1A0BB2EE040A68EE800AB6EEED
:103C7000000A00EE880ABDEEC00A10EE100AFCF73A
:103C8000B9FC41EC1B0B53EC1A2BFCF744FC41EC48
:103C9000190BFCF7EBFC206026E018EE100AFCF78D
:103CA000BAFC41EC1C0B9FED120B53EC102BFCF7F4
:103CB000C0FB41EC1A0BB2EE040A68EE800AB6EEC5
:103CC000000A10EE880ABDEEC00A10EE100AFCF7DA
:103CD00091FC41EC1B0B53EC1A2BFCF71CFC41EC48
:103CE000190BFCF7C3FC2060BDEC0A8B10BD000073
:103CF00000000000000024400CB50020019000905E
:103D00004148006840F480303F49086000BF3E48A9
:103D1000006800F4003000900198401C0190009869
:103D200018B90198B0F5A04FF1D13748006800F4F8
:103D3000003010B10120009001E0002000900098B8
:103D4000012860D130484030006840F080502E4952
:103D5000403108602D48006840F440402B4908601D
:103D6000294808300068284908310860084600687A
:103D700040F4004008600846006840F4A050086025
:103D80002348091F0860081F006840F08070091F61
:103D9000086000BF1C48006800F000700028F9D0DF
:103DA0001A48006840F480301849086000BF17487E
:103DB000406800F480300028F9D01448006840F4CE
:103DC00000301249086000BF1048406800F400301D
:103DD0000028F9D040F205700E4908600A48083002
:103DE000006820F0030008490831086008460068B0
:103DF00040F00200086000BF03480830006800F08F
:103E00000C000828F8D10CBD0038024000700040BA
:103E10000C5A4007003C024010B52DED088BB0EE67
:103E2000408AF0EE608A53EC182B9FED0F0B51EC9B
:103E3000100BFCF770FB41EC1B0B9FED0D0B53ECD3
:103E4000102BFCF7F6FA41EC1A0B9FED070B53EC25
:103E5000102BFCF7E8FA41EC190BB0EE490AF0EE32
:103E6000690ABDEC088B10BD000000000000F03FA7
:103E7000000000000000594010B5FFF7AFF9FEF751
:103E800037FA00201149487048718870C870FFF7F0
:103E90006FF84FF4FA7242F21C519FED0D1ADFEDEC
:103EA0000D0A9FED0D0A0D48FFF776FC4FF47A726C
:103EB00042F248619FED071ADFED060AB7EE080AE5
:103EC00006483038FFF768FC10BD00005C00002099
:103ED000CDCCCC3E000000009A99993E7C08002091
:103EE00010B55B48007E012803D05A4800780228AC
:103EF00007D100205849087002F060FBFFF7EAF88C
:103F0000A4E05648007890B9012251035448FEF7C6
:103F10006CFB4FF4FA7002F0AFFA00224FF400513C
:103F20004F48FEF762FB4FF4FA7002F0A5FA4B48D7
:103F3000007820B1012251034948FEF756FB46485C
:103F4000407890B1474890F8CD0301280DD14648FC
:103F50004078012801D002F001FB43484078012855
:103F600003D13E480078FEF7D9F93E48D0F8C403A3
:103F7000002867D13B4890EDE91AB8EEC11AF0EE7F
:103F8000410A90EDEB1AB8EEC11AB0EE410A00F505
:103F90001270FFF729FC334880EDE10A90EDE41A36
:103FA000B8EEC11AF0EE410A90EDE11AB0EE410A06
:103FB00000F50670FFF718FCBDEEC00A294880ED39
:103FC000ED0AFEF7E9FF274890ED940AB5EEC00A26
:103FD000F1EE10FA02DD90ED940A04E0214890ED34
:103FE000940AB1EE400ADFED210AB4EEE00AF1EEE8
:103FF00010FA08D201211B4880F8CD13002180F867
:10400000C913C0F888131748D0F8A803002803DDA7
:104010001448D0F8A80303E01248D0F8A80340429F
:10402000642813DD0F48D0F8AC13D0F8A8034FF480
:10403000005202FB10110B48C0F8AC130021C0F86D
:10404000A81303E002F0BAFAFEF792FF10BD0000D9
:104050008C040020F80100205C00002048010020B2
:1040600000180240340600204901002000401C4690
:1040700008B500BF04F0C2FC009019E00D480078BC
:1040800060B90D48D0F8BC0340B103F065FCFFF700
:10409000F3FE03F0A7FC01200649087005480078EC
:1040A000012801D1FFF71CFF0A21684603F0D0FD6B
:1040B000E4E700005C0000203406002010B52DED80
:1040C000068B04463A480078012803D1102039496C
:1040D000086002E01020374908603748007803285C
:1040E0000DD1344800684FF4257191FBF0F033494D
:1040F000898A91FBF0F020443149086005E02E48A0
:104100000078012801D12E48046000BF2C480068C7
:10411000002803DC00202A49086009E028480068DC
:1041200024490968884203DB224800682449086062
:1041300000BF01202349487008464079A0BB2048B1
:10414000006828B92048D0F8A413C0F8AC132BE0BD
:104150001B480068FCF74EFA41EC1A0BB0EE4A0A15
:10416000F0EE6A0AFFF758FEB0EE408AF0EE608A81
:10417000164908680968491C144B1960FCF73AFA9B
:1041800041EC190B53EC182BFCF758FA0CD20E48E3
:10419000D0F8AC03A0F540400B49C1F8AC030020B7
:1041A0000A49086007494871BDEC068B10BD000044
:1041B0004801002068000020F80100208C04002045
:1041C000640000205C000020340600206C00002009
:1041D0000120044948700846407908B90120487117
:1041E000704700005C000020042808D14FF0E02157
:1041F000096941F004014FF0E022116107E04FF03E
:10420000E021096921F004014FF0E02211617047BB
:1042100010B504F0E3FB012802D004F059F804E0E3
:1042200002480068401C0149086010BDB40100202C
:1042300010B51548006840F4700013490860134831
:10424000006840F001001149086000200F49083162
:1042500008600E4800680E4908400C4908600D4887
:10426000091D0860081F006820F48020091F0860ED
:10427000002006490C310860FFF73EFD4FF000605A
:1042800001498039086010BD88ED00E00038024027
:10429000FFFFF6FE1030002410B50121044800F0A5
:1042A000BBF818B10121024800F098F810BD0000D9
:1042B0000010004010B50121044800F0ADF818B11D
:1042C0000121024800F08AF810BD000000140040EF
:1042D0001CB501210802FFF725FB02208DF8040020
:1042E00000208DF806008DF8070003208DF80500EA
:1042F0002020009069461548FEF7EAF803220521C0
:104300001248FEF72DF94020009069460F48FEF74D
:10431000DFF8032206210D48FEF722F980200090E5
:1043200069460A48FEF7D4F8032207210748FEF73A
:1043300017F90420009069460448FEF7C9F80322E3
:1043400002210248FEF70CF91CBD000000200240CB
:1043500070B588B006460C461546FFF7B9FF012137
:104360000220FFF7FFFAADF8146006940020ADF8C4
:104370001C00ADF8160005A9174800F083F960206D
:10438000ADF800000120ADF802000020ADF80400F7
:104390000295ADF80C00ADF81000ADF80E00ADF8C8
:1043A000120069460C4800F049F869460A4800F0D6
:1043B00083F86946084800F0D1F86946064800F0DD
:1043C0001DF90121044800F00CF80121024800F019
:1043D00014F808B070BD000000040140CA43028216
:1043E000704721B1028842F00102028004E0028895
:1043F0004FF6FE731A400280704731B1B0F8442086
:1044000042F40042A0F8442005E0B0F84420C2F392
:104410000E02A0F84420704730B502460020002369
:104420000024158A05EA0103958905EA010413B100
:104430000CB1012000E0002030BD000070B5002468
:1044400000220023058C4FF6FE7635400584028C51
:104450008388048B4FF68F752C40B51E2C400D8839
:104460002C43751E2A408D892A434D882A43104DBE
:10447000A84202D00F4DA84213D14FF6F7752A403B
:10448000CD892A434FF6FB752A408D882A434FF683
:10449000FF652B404FF6FF552B400D8A2B434D8A6D
:1044A0002B43838004838D684563028470BD0000C4
:1044B000000001400004014070B5002400220023E8
:1044C000058C4FF6EF7635400584028C8388048B8B
:1044D00048F6FF752C404FF6FF452C400D884FF6EF
:1044E000FF7606EA05252C434FF6DF752A408D89B5
:1044F00006EA05152A434D8806EA05152A43154D97
:10450000A84202D0144DA8421DD14FF67F752A4013
:10451000CD894FF6FF7606EA05152A434FF6BF759B
:104520002A408D8806EA05152A434FF6FF352B40B1
:104530004FF2FF752B400D8A06EA85052B434D8A05
:1045400006EA85052B43838004838D688563028496
:1045500070BD0000000001400004014070B500245F
:1045600000220023058C4FF6FF6635400584028C3F
:104570008388848B4FF68F752C404FF6FC752C404A
:104580000D882C434FF6FF552A408D894FF6FF7654
:1045900006EA05252A434D8806EA05252A43154DD6
:1045A000A84202D0144DA8421DD14FF2FF752A40F7
:1045B000CD894FF6FF7606EA05252A434FF6FF35EB
:1045C0002A408D8806EA05252A434EF6FF752B40C2
:1045D0004DF6FF752B400D8A06EA05152B434D8AD3
:1045E00006EA05152B43838084838D68C5630284A6
:1045F00070BD0000000001400004014070B50022C1
:1046000000230024058C4EF6FF7635400584038C8C
:104610008488828B48F6FF752A404FF6FF452A4072
:104620000D884FF6FF7606EA05252A434DF6FF75FD
:104630002B408D8906EA05352B434D8806EA053562
:104640002B430A4DA84202D0094DA84208D14BF68F
:10465000FF752C400D8A4FF6FF7606EA85152C4330
:10466000848082838D680564038470BD00000140EE
:10467000000401404163704781637047C163704724
:104680000164704700220288184B98420ED0184BE4
:1046900098420BD0B0F1804F08D0164B984205D00D
:1046A000154B984202D0154B984204D14FF68F73A8
:1046B0001A404B881A43124B984207D0114B98422C
:1046C00004D04FF6FF431A400B891A4302804B680F
:1046D000C3620B880385054B984202D0044B984275
:1046E00001D18B7A03860123838270470000014049
:1046F000000401400004004000080040000C00409D
:10470000001000400014004010B540F2244115484C
:1047100000F0D0FAF8B100211348FDF785FA00BF88
:104720001148FDF739FB0028FAD10F48FDF73EFB91
:104730000E49088008460088C0F11E0081B20C4A6C
:104740000C48FDF775FF1E210748FDF75FFB0121AF
:104750000548FDF769FA0348001D008801480088F4
:1047600010BD0000007C0040A06002405401002009
:10477000040A00203C0A002010B586B0044601213E
:104780001020FFF7CFF80121C807FFF7DBF8002062
:104790008DF8160001208DF8170002208DF8150005
:1047A0008DF81400049004A91A48FDF791FE012029
:1047B000049004A91748FDF78BFE08220121154833
:1047C000FDF7CEFE082200211248FDF7C9FE009435
:1047D0000020ADF80400ADF80600ADF80800ADF813
:1047E0000C000C20ADF80A0069460B4800F0B2FA44
:1047F000002203215320FEF79DFF012240F22441B5
:10480000054800F081FA0121034800F031FA06B0B2
:1048100010BD000000100240007C004030B58FB099
:1048200004460D4601214805FFF77CF81C48FDF7BA
:1048300007FA00BF1A48FDF7AFFA0028FAD14FF087
:104840002060009017480190029400200390049586
:1048500005904FF4806006900020079008904FF478
:104860008070099000020A9000200B900C900D902F
:104870000E9069460A48FDF79DFA01210848FDF7A8
:10488000D3F900BF0648FDF787FA0128FAD10122C3
:1048900040210448001F00F0F7F90FB030BD0000C0
:1048A000A0600240047C004010B540F22441114851
:1048B00000F000FAE8B100210F48FDF7B5F900BF9C
:1048C0000D48FDF769FA0028FAD10B48FDF76EFA9A
:1048D000022802D10948FDF79BFA14210648FDF78A
:1048E00095FA01210448FDF79FF9024880880148A4
:1048F000008810BD0010014040640240D004002038
:1049000010B586B0044601210220FFF70BF8012103
:104910001020FFF727F800208DF8160001208DF8F1
:10492000170002208DF815008DF814004020049027
:1049300004A91A48FDF7CCFD8020049004A917486B
:10494000FDF7C6FD072206211448FDF709FE0722E0
:1049500011461248FDF704FE00940020ADF8040053
:10496000ADF80600ADF80800ADF80C000C20ADF86D
:104970000A0069460A4800F0EDF9002203212520CB
:10498000FEF7D8FE012240F22441054800F0BCF9B0
:104990000121034800F06CF906B010BD000402408C
:1049A0000010014030B58FB004460D460121880546
:1049B000FEF7B8FF1C48FDF743F900BF1A48FDF7A2
:1049C000EBF90028FAD14FF00060009017480190F1
:1049D000029400200390049505904FF480600690A7
:1049E0000020079008904FF48070099000020A9010
:1049F00000200B900C900D900E9069460A48FDF730
:104A0000D9F901210848FDF70FF900BF0648FDF765
:104A1000C3F90128FAD1012240210448001F00F007
:104A200033F90FB030BD0000406402400410014073
:104A300010B586B0044601210820FEF773FF01215E
:104A40004804FEF77FFF00208DF8160001208DF846
:104A5000170002208DF815008DF814002020049016
:104A600004A91A48FDF734FD4020049004A9174812
:104A7000FDF72EFD072205211448FDF771FD0722E1
:104A800006211248FDF76CFD00940020ADF80400EB
:104A9000ADF80600ADF80800ADF80C000C20ADF83C
:104AA0000A0069460A4800F055F900220321262031
:104AB000FEF740FE012240F22441054800F024F9AF
:104AC0000121034800F0D4F806B010BD000C0240EC
:104AD0000044004010B540F22441144800F0EAF8C8
:104AE000F0B100211248FDF79FF800BF1048FDF714
:104AF00053F90028FAD10E48FDF758F90D490880FE
:104B000008460088C0F5967081B20B48FDF74AFF51
:104B10001E210748FDF77AF901210548FDF784F8C1
:104B20000248001D00880148008810BD0048004070
:104B3000286002405A0100205A0A002010B586B0B1
:104B4000044601210820FEF7EDFE01218804FEF74E
:104B5000F9FE00208DF8160001208DF817000220C4
:104B60008DF815008DF81400C001049004A91B48AD
:104B7000FDF7AEFC4FF40070049004A91748FDF750
:104B8000A7FC072208211548FDF7EAFC07220921A6
:104B90001248FDF7E5FC00940020ADF80400ADF8E4
:104BA0000600ADF80800ADF80C000C20ADF80A00C6
:104BB00069460B4800F0CEF8002203212720FEF7BB
:104BC000B9FD012240F22441054800F09DF8012181
:104BD000034800F04DF806B010BD0000000C024084
:104BE0000048004030B58FB004460D46012148050D
:104BF000FEF798FE1C48FDF723F800BF1A48FDF7A2
:104C0000CBF80028FAD14FF00060009017480190CF
:104C1000029400200390049505904FF48060069064
:104C20000020079008904FF48070099000020A90CD
:104C300000200B900C900D900E9069460A48FDF7ED
:104C4000B9F801210848FCF7EFFF00BF0648FDF75F
:104C5000A3F80128FAD1012240210448001F00F0E6
:104C600013F80FB030BD0000286002400448004037
:104C700021B1828942F40052828104E082894DF69A
:104C8000FF731A40828170471AB1838A0B43838273
:104C900002E0838A8B438382704702460020B1F58D
:104CA000007F00D100BF13880B400BB1012000E052
:104CB0000020704770B50246002400230025002024
:104CC00040F66A16B14200D100BFC1F3421501F0AF
:104CD0001F03012606FA03F3012D02D19689334002
:104CE00006E0022D02D1168A334001E0968A334055
:104CF0000C12012606FA04F41688344013B10CB1E4
:104D0000012000E0002070BDF0B50346002400261D
:104D10000025002040F66A17B94200D100BF1846AE
:104D2000C1F3421401F01F06012707FA06F5012C12
:104D300001D10C3004E0022C01D1103000E014301D
:104D40001AB107682F43076002E00768AF430760A6
:104D5000F0BD00002DE9FF4705460E460024A146A0
:104D600000BFA046B08900B100BF2C8A24F4405493
:104D7000F08804432C82AC8941F20C608443B088F3
:104D800031890843718908430443AC81AC8A24F417
:104D90004074B0890443AC826846FEF7F3FD2048B6
:104DA000854202D01F48854202D1DDF80C9001E017
:104DB000DDF80890A88900F4004040B109EBC90073
:104DC00000EB091031684900B0FBF1F707E009EB8F
:104DD000C90000EB091031688900B0FBF1F76420CD
:104DE000B7FBF0F004012009642101FB1078A889C9
:104DF00000F4004040B1322000EBC800B0FBF1F0FD
:104E000000F00700044308E0322000EB08106421A2
:104E1000B0FBF1F000F00F0004432C81BDE8FF87E8
:104E20000010014000140140C1F308028280704765
:104E300070B504460D4629462046FFF7F5FF00BF32
:104E400080212046FFF729FF0028F9D070BD00001F
:104E500070B505460C46002600BF0DB1022C01D8E6
:104E6000002070BDA11E0A4802882846FDF7FCFC00
:104E70000646F1B2A01E285C814206D1601E285C65
:104E8000B0EB162F01D10120EBE70020E9E700008D
:104E9000AA0100200FB4054B10B503A9044A0298DB
:104EA00001F09CF910BC5DF814FB0000A964000837
:104EB0008802002003B401984100009850EAC12004
:104EC00018BF04204A0D18BF40F0010040F2FF72E5
:104ED000B2EB515F08BF40F00200012808BF052077
:104EE00002B070470000000070B59B482DED020B2A
:104EF0002DED068B079D25F00044A04218DC974855
:104F0000844202DC0AD1069840B19DED060BBDEC4F
:104F1000068B02B0BDE8704001F006B9002DCCBF91
:104F20009FED8F0B9FED900BBDEC068B02B070BD1B
:104F30008F48A04215DD8F48A042D8BF4FF0FF3404
:104F400058DD9DED060B51EC100BFFF7B3FF042865
:104F500008BF01F01DF99DED060BBDEC068B02B0FC
:104F600070BD9DED060B51EC100B01F091FACDE9EF
:104F7000060181489FED828BA0423CDD8248A04221
:104F80001FDD00249FED82AB9DED060B53EC1A2B29
:104F900051EC100BFBF7A6F99DED060B41EC190B3C
:104FA00053EC1A2B51EC100BFBF743FA53EC182B74
:104FB000FBF739FA53EC192BFBF7ADFACDE90601F3
:104FC00049E09DED060B012453EC182B51EC100B1E
:104FD000FBF788F99DED060B41EC190B53EC182BF0
:104FE00051EC100BFBF71FFA53EC192BFBF793FA5C
:104FF000CDE906012FE06848A0421FDD02249FEDA5
:10500000689B9DED060B53EC192B51EC100BFBF735
:1050100010FA53EC182BFBF765F99DED060B41ECEC
:10502000180B53EC192B51EC100BFBF7FCF953EC5C
:10503000182BFBF770FACDE906010CE09DED060B8D
:10504000032453EC102B9FED580B51EC100BFBF786
:1050500062FACDE906019DED060B53EC102B51ECE5
:10506000100BFBF7E6F941EC180B53EC182BFBF790
:10507000E0F941EC190B4E480621B0EE490AF0EE7A
:10508000690A784400F0BCFF53EC182B51EC100B6C
:10509000FBF7CFF941EC180B4648B0EE490AF0EEA9
:1050A000690A0521784400F0ABFF53EC192B51EC51
:1050B000100BFBF7BEF941EC100B51EC180B53EC45
:1050C000102B002C0EDAFBF70DF99DED061B53ECAF
:1050D000112BFBF7AEF99DED061B53EC112BFBF7E3
:1050E000A5F935E0FBF7FEF89DED061B53EC112BFF
:1050F000FBF79FF941EC100B2F48784400EBC400FC
:1051000090ED001B51EC100B53EC112BFBF78BF9BE
:105110009DED061B53EC112BFBF785F941EC100BB1
:105120002648784400EBC40090ED001B51EC100BB6
:1051300053EC112BFBF77AF941EC100B002DA2BFB9
:10514000BDEC068B02B070BD51EC100B81F000413C
:1051500041EC100B01E70000000010440000F07F5C
:10516000182D4454FB21F93F182D4454FB21F9BF5D
:105170000000DC3F0000203E0000F33F0000000084
:10518000000000000000F03F0000E63F00000000CB
:10519000000000000000004000800340000000000C
:1051A000000000000000F83F000000000000F0BF19
:1051B0008243000038430000C24200007A420000EF
:1051C00070B56B4E2DED040B2DED028B82B0DDF82A
:1051D0001CC0DDE905235C422CF000411C4341EA80
:1051E000D474049D22F00040B44205D86C422C4394
:1051F00040EAD474B4420BD99DED061B9DED040B1F
:1052000002B0BDEC028B04B0BDE8704000F096BF68
:10521000ACF14054A4F17F641C430BD0022404EA97
:10522000AC7444EAD27405439FED538B9FED542B2D
:1052300007D015E09DED040B51EC100B01F0C1F807
:1052400042E0002C11BF012C9DED040B02B0BDEC1F
:10525000028B04BF04B070BD022C38D0032C3BD0AD
:105260000B439FED491B9FED4A0B0AD0B14218D169
:10527000B04209D121F0804120F080400791059093
:105280000FE0002A15DA10E0434B7B44002C08BFE6
:1052900093ED000B0DD0012C10D0022C17D0032C55
:1052A0001AD0B0421DD1002A03DAB0EE410AF0EE66
:1052B000610A02B0BDEC028B04B070BD93ED000B2F
:1052C00051EC100B81F0004141EC100BF1E7B0EE16
:1052D000480AF0EE680AECE7B0EE420AF0EE620A25
:1052E000E7E7401A00153C28C8BF8DED000B19DC1C
:1052F000BCF1000FBEBF10F13C0F9FED290B8DEDEF
:10530000000B0FDB9DED060B53EC102B9DED040BFA
:1053100051EC100BFBF7FFF801F0BAF801F051F86F
:10532000CDE90001002C08BF9DED000BC1D0012C80
:1053300010D0022C9FED1C0B53EC102B9DED000B9D
:1053400051EC100B0DD0FBF76EF853EC182BFBF75C
:105350006AF8B9E7019880F0004001909DED000BDC
:10536000A7E7FBF760F853EC182BFBF75FF8ABE708
:105370000000F07F00000000182D4454FB2109407C
:10538000182D4454FB2109C0182D4454FB21F9BFAA
:10539000182D4454FB21F93FAA41000000000000F1
:1053A0000000000000000000075C143326A6A13CAA
:1053B0002DE9F04D2DED040B2DED0E8B96B0DDE9B2
:1053C0002550279CDDF890A025F0004624F00048E9
:1053D000BAF1000F14BF0121002101EB4502FC4985
:1053E00053184A1093422AD3002814BF01230023E4
:1053F00003EB44030B44F7498B4220D358EA0001E6
:105400009FEDF59B76D0DFF8D8B35D4503D1BAF1B7
:10541000000F05D188E0BAF1000F08BF002100D0CD
:10542000012101EB450111F5001F08D8002814BF28
:105430000121002101EB440111F5001F0BD99DED65
:10544000261B9DED240B16B0BDEC0E8B04B0BDE801
:10545000F04D00F073BE0027002DBCBFE149884528
:1054600021DAE1498845A8BF02271CDAC3451ADCC6
:10547000DE4901EB2851142908DDC1F1340220FA7C
:1054800002F101FA02F282420DD108E058B9C1F1ED
:10549000140228FA02F101FA02F2424503D101F0A6
:1054A0000101C1F1020756EA0A0124D1002C22DAD7
:1054B000002D18BF022F01D0012F0AD0022000F0CA
:1054C00087FE16B0BDEC0E8B04B0BDE8F04D00F0C9
:1054D00013BE022000F07CFE00F00EFE51EC100B1B
:1054E00081F0004141EC100B16B0BDEC0E8B04B006
:1054F000BDE8F08D18E09FEDBEAB9FEDBF8B00289F
:1055000071D1B848804522D105F1804010F5801056
:1055100008BFBAF1000F07D0B3450ADC002CA8BFC2
:105520009DED260BE0DA0DE0B0EE490AF0EE690AD7
:10553000DAE7002C06DA9DED260B51EC100B81F01A
:1055400000416FE0AE48784490ED000BCCE7D845C1
:105550004DD1002C48DA2EB186423AD1BAF1000F73
:1055600042D126E0BAF1000F13D0022000F030FE45
:1055700000F0FEFD8DED020B9DED240B8DED000B7B
:1055800010EE900A039961F31E0003909DED020B4B
:10559000AAE78DED02AB9DED240B1AEE901A10EEEA
:1055A000900A8DED000B61F31E0003909DED020B40
:1055B0009AE78DED028B9DED240B18EE901A10EEFC
:1055C000900A8DED000B61F31E0003909DED020B20
:1055D0008AE709DA9DED240B51EC190B53EC102BE3
:1055E000FAF799FF1EE020E09DED240B7CE7864250
:1055F0001BDAB4F1804F0DD0A4F10050B0F1FF5090
:1056000013D1002D11DB9DED240B51EC100B02F09A
:1056100033F807E09DED240B53EC102B51EC100BED
:1056200000F0C2BC41EC100B5EE79DED240B51EC89
:10563000100B00F02DFFBAF1000FCDE90E0142D1A1
:105640009FED710B46B3A6F1E040B0F17F600CD046
:105650005E4538D1002D00DAA7B3022F0CBF012020
:105660004FF0FF30FAF7C6FFDCE7002D01DD002C1C
:105670000DDA002D01DD002C1FDB002D16DA002CC9
:1056800014DB012F08BF9FED620B3FF42DAFB0EE8E
:105690004A0AF0EE6A0A27E7022F18BF002D0CD045
:1056A000012F0AD1002DFFF61FAF06E0002DB8BF75
:1056B000002C08DA012F3FF417AFB0EE480AF0EEE5
:1056C000680A11E71BE0012000EBE57050EA0701D2
:1056D00015D0791EB0EE498AF0EE698A084308BFFA
:1056E0009FED4D8B4E480025804570DD4D494E485D
:1056F000884514DDB0420DDB002C19DB2FE00120C2
:1057000000F066FD16B0BDEC0E8B04B0BDE8F04DA8
:1057100000F01EBDB34502DC002C09DC1FE0864210
:1057200002DA002C1BDA03E05E452BDD002C16DDCF
:10573000022000F04DFD00F01BFD8DED020B53EC3F
:105740001A2B51EC180BFAF774FECDE900010399FE
:10575000019861F31E0003909DED020BC4E6022048
:1057600000F036FD00F014FD10EE901A18EE900ACD
:105770008DED020B8DED008B61F31E0003909DED0E
:10578000020BB1E69DED0E0B53EC192B51EC100BF7
:10579000FAF749FE9FED260BCDE9080153EC102BDB
:1057A0009DED080B51EC100BFAF743FE9FED221B09
:1057B00053EC112BFAF73AFE9DED081B53EC112B1D
:1057C000FAF737FE9FED1E1B53EC112B3CE08CE0EB
:1057D000FFFF1F00FFFF0F00000000000000F03F70
:1057E0000000F03F0000F07F0000404301FCFFFF9D
:1057F000000000000000F07F00000000000000003A
:10580000EE3E0000000000000000000000000080EC
:10581000000000000000F0FF000000000000F0BFEA
:105820000000E0410000F043FFFFEF3F00000000F8
:10583000000000000000D03F555555555555D53F47
:10584000000000000000E03FFAF7F0FD9DED080BBE
:1058500041EC1A0B53EC102B51EC100BFAF7E9FD4D
:1058600053EC1A2BFAF7E5FD41EC1A0B9FEDFE0BFA
:1058700053EC102B9DED080B51EC100BFAF7D9FDF2
:1058800041EC1B0B9FEDFA0B51EC1A0B53EC102B58
:10589000FAF7CFFD41EC1A0B9FEDF70B53EC102BF1
:1058A0009DED080B51EC100BFAF7C3FD53EC1A2BCE
:1058B000FAF7B9FD41EC1A0B51EC1B0B53EC1A2B08
:1058C000FAF710FD0690CDE906519DED060B53EC5D
:1058D0001B2B51EC100BFAF7A6FD53EC1A2BFAF721
:1058E000A5FD41EC100B00F0A1B90020B6F5801F1A
:1058F0000EDA9FEDE30B53EC102B9DED0E0B51ECEC
:10590000100BFAF796FDCDE90E016FF034000E464C
:1059100000EB2650A0F2FF37C6F31300DA4940F03F
:105920007F6646F040568842D8BF002408DDD7493C
:105930008142C8BF012403DC0024A6F580167F1C29
:10594000D348784400EBC4000F9690ED00CB9DED5A
:105950000E0B53EC1C2B51EC100BFAF764FD9DED74
:105960000E0B41EC1B0B53EC1C2B51EC100BFAF7FC
:10597000B9FC41EC100B51EC190B53EC102BFAF75E
:10598000CAFD41EC1D0B51EC1B0B53EC1D2BFAF720
:1059900050FD41EC1A0BBF488DED10AB78441095CB
:1059A00090ED000B4FF0005040EA660000EB8440A1
:1059B0008DED080B00F5002009909DED080B53ECD0
:1059C0001C2B51EC100BFAF72EFD9DED0E1B53EC2A
:1059D000112BFAF72BFD41EC100B53EC102B9DED26
:1059E000100B51EC100BFAF724FD9DED080B41EC68
:1059F0001C0B53EC102B9DED100B51EC100BFAF718
:105A000018FD53EC1B2BFAF711FD53EC1C2BFAF786
:105A10000AFD53EC1D2BFAF70CFD41EC1C0B53EC6B
:105A20001A2B51EC1A0BFAF704FD41EC1B0B9A48A8
:105A30000621B0EE4B0AF0EE6B0A784400F0E0FA73
:105A4000B0EE401AF0EE601AB0EE41DAF0EE61DA34
:105A500053EC1B2B51EC1B0BFAF7EBFC53EC1D2BFF
:105A6000FAF7E7FC9DED100B41EC1B0B53EC1A2BE6
:105A700051EC100BFAF736FC53EC1C2BFAF7D9FC5F
:105A800053EC1B2BFAF72EFC9DED100B41EC1B0B7E
:105A900053EC102B51EC100BFAF7CBFC41EC1D0B27
:105AA0009FED7FEB53EC1E2BFAF71CFC53EC1B2BEA
:105AB000FAF718FC0890CDE908519DED080B53EC5E
:105AC0001E2B51EC100BFAF7AEFC53EC1D2BFAF722
:105AD000AAFC53EC1B2BFAF7A9FC9DED080B41EC3B
